{
  "contractName": "ReviewClass",
  "abi": [
    {
      "constant": true,
      "inputs": [
        {
          "name": "",
          "type": "uint256"
        }
      ],
      "name": "hm_orderNumber_bool",
      "outputs": [
        {
          "name": "",
          "type": "bool"
        }
      ],
      "payable": false,
      "stateMutability": "view",
      "type": "function"
    },
    {
      "constant": true,
      "inputs": [
        {
          "name": "",
          "type": "uint256"
        }
      ],
      "name": "reviews",
      "outputs": [
        {
          "name": "productID",
          "type": "uint256"
        },
        {
          "name": "orderNumber",
          "type": "uint256"
        },
        {
          "name": "productName",
          "type": "string"
        },
        {
          "name": "reviewMessage",
          "type": "string"
        },
        {
          "name": "numStars",
          "type": "uint256"
        }
      ],
      "payable": false,
      "stateMutability": "view",
      "type": "function"
    },
    {
      "constant": true,
      "inputs": [],
      "name": "reviewCount",
      "outputs": [
        {
          "name": "",
          "type": "uint256"
        }
      ],
      "payable": false,
      "stateMutability": "view",
      "type": "function"
    },
    {
      "inputs": [],
      "payable": false,
      "stateMutability": "nonpayable",
      "type": "constructor"
    },
    {
      "anonymous": false,
      "inputs": [
        {
          "indexed": false,
          "name": "_product_id",
          "type": "uint256"
        },
        {
          "indexed": false,
          "name": "_order_number",
          "type": "uint256"
        },
        {
          "indexed": false,
          "name": "_product_name",
          "type": "string"
        },
        {
          "indexed": false,
          "name": "_review_message",
          "type": "string"
        },
        {
          "indexed": false,
          "name": "_num_stars",
          "type": "uint256"
        }
      ],
      "name": "submittedEvent",
      "type": "event"
    },
    {
      "constant": false,
      "inputs": [
        {
          "name": "_product_id",
          "type": "uint256"
        },
        {
          "name": "_order_number",
          "type": "uint256"
        },
        {
          "name": "_product_name",
          "type": "string"
        },
        {
          "name": "_review_message",
          "type": "string"
        },
        {
          "name": "_num_stars",
          "type": "uint256"
        }
      ],
      "name": "addReview",
      "outputs": [],
      "payable": false,
      "stateMutability": "nonpayable",
      "type": "function"
    }
  ],
  "bytecode": "0x608060405234801561001057600080fd5b5061009b60016103506040805190810160405280600981526020017f4865616470686f6e6500000000000000000000000000000000000000000000008152506040805190810160405280600d81526020017f47726561742070726f647563740000000000000000000000000000000000000081525060056101b4640100000000026401000000009004565b61012560026103516040805190810160405280600581526020017f57617463680000000000000000000000000000000000000000000000000000008152506040805190810160405280600b81526020017f4261642070726f6475637400000000000000000000000000000000000000000081525060016101b4640100000000026401000000009004565b6101af60016103526040805190810160405280600981526020017f4865616470686f6e6500000000000000000000000000000000000000000000008152506040805190810160405280600b81526020017f4d69642070726f6475637400000000000000000000000000000000000000000081525060036101b4640100000000026401000000009004565b61049f565b6001600085815260200190815260200160002060009054906101000a900460ff161515156101e157600080fd5b600181101580156101f3575060058111155b15156101fe57600080fd5b60026000815480929190600101919050555060a0604051908101604052808681526020018581526020018481526020018381526020018281525060008060025481526020019081526020016000206000820151816000015560208201518160010155604082015181600201908051906020019061027c9291906103fa565b5060608201518160030190805190602001906102999291906103fa565b5060808201518160040155905050600180600086815260200190815260200160002060006101000a81548160ff0219169083151502179055507f9c84131db10e2ad260ba03822703be511076f66549cbf7e7854c0777046815188585858585604051808681526020018581526020018060200180602001848152602001838103835286818151815260200191508051906020019080838360005b8381101561034e578082015181840152602081019050610333565b50505050905090810190601f16801561037b5780820380516001836020036101000a031916815260200191505b50838103825285818151815260200191508051906020019080838360005b838110156103b4578082015181840152602081019050610399565b50505050905090810190601f1680156103e15780820380516001836020036101000a031916815260200191505b5097505050505050505060405180910390a15050505050565b828054600181600116156101000203166002900490600052602060002090601f016020900481019282601f1061043b57805160ff1916838001178555610469565b82800160010185558215610469579182015b8281111561046857825182559160200191906001019061044d565b5b509050610476919061047a565b5090565b61049c91905b80821115610498576000816000905550600101610480565b5090565b90565b61076e806104ae6000396000f300608060405260043610610062576000357c0100000000000000000000000000000000000000000000000000000000900463ffffffff1680636c367c0e14610067578063776edb8714610134578063e83ddcea14610179578063eff5924f146102a0575b600080fd5b34801561007357600080fd5b506101326004803603810190808035906020019092919080359060200190929190803590602001908201803590602001908080601f0160208091040260200160405190810160405280939291908181526020018383808284378201915050505050509192919290803590602001908201803590602001908080601f0160208091040260200160405190810160405280939291908181526020018383808284378201915050505050509192919290803590602001909291905050506102cb565b005b34801561014057600080fd5b5061015f60048036038101908080359060200190929190505050610511565b604051808215151515815260200191505060405180910390f35b34801561018557600080fd5b506101a460048036038101908080359060200190929190505050610531565b604051808681526020018581526020018060200180602001848152602001838103835286818151815260200191508051906020019080838360005b838110156101fa5780820151818401526020810190506101df565b50505050905090810190601f1680156102275780820380516001836020036101000a031916815260200191505b50838103825285818151815260200191508051906020019080838360005b83811015610260578082015181840152602081019050610245565b50505050905090810190601f16801561028d5780820380516001836020036101000a031916815260200191505b5097505050505050505060405180910390f35b3480156102ac57600080fd5b506102b5610697565b6040518082815260200191505060405180910390f35b6001600085815260200190815260200160002060009054906101000a900460ff161515156102f857600080fd5b6001811015801561030a575060058111155b151561031557600080fd5b60026000815480929190600101919050555060a0604051908101604052808681526020018581526020018481526020018381526020018281525060008060025481526020019081526020016000206000820151816000015560208201518160010155604082015181600201908051906020019061039392919061069d565b5060608201518160030190805190602001906103b092919061069d565b5060808201518160040155905050600180600086815260200190815260200160002060006101000a81548160ff0219169083151502179055507f9c84131db10e2ad260ba03822703be511076f66549cbf7e7854c0777046815188585858585604051808681526020018581526020018060200180602001848152602001838103835286818151815260200191508051906020019080838360005b8381101561046557808201518184015260208101905061044a565b50505050905090810190601f1680156104925780820380516001836020036101000a031916815260200191505b50838103825285818151815260200191508051906020019080838360005b838110156104cb5780820151818401526020810190506104b0565b50505050905090810190601f1680156104f85780820380516001836020036101000a031916815260200191505b5097505050505050505060405180910390a15050505050565b60016020528060005260406000206000915054906101000a900460ff1681565b6000602052806000526040600020600091509050806000015490806001015490806002018054600181600116156101000203166002900480601f0160208091040260200160405190810160405280929190818152602001828054600181600116156101000203166002900480156105e95780601f106105be576101008083540402835291602001916105e9565b820191906000526020600020905b8154815290600101906020018083116105cc57829003601f168201915b505050505090806003018054600181600116156101000203166002900480601f0160208091040260200160405190810160405280929190818152602001828054600181600116156101000203166002900480156106875780601f1061065c57610100808354040283529160200191610687565b820191906000526020600020905b81548152906001019060200180831161066a57829003601f168201915b5050505050908060040154905085565b60025481565b828054600181600116156101000203166002900490600052602060002090601f016020900481019282601f106106de57805160ff191683800117855561070c565b8280016001018555821561070c579182015b8281111561070b5782518255916020019190600101906106f0565b5b509050610719919061071d565b5090565b61073f91905b8082111561073b576000816000905550600101610723565b5090565b905600a165627a7a72305820d603e470df33384a819aa50f1f0319375be8dd7bd8f45da782b90c55e947e0350029",
  "source": "pragma solidity ^0.4.25;\r\n\r\ncontract ReviewClass {\r\n    // Model a ReviewObject object \r\n    struct ReviewObject {\r\n        uint productID;\r\n        uint orderNumber;\r\n        string productName;\r\n        string reviewMessage;\r\n        uint numStars;\r\n    }\r\n\r\n    // Event triggered on form submission\r\n    event submittedEvent (\r\n        uint _product_id, \r\n        uint _order_number, \r\n        string _product_name, \r\n        string _review_message, \r\n        uint _num_stars\r\n    );\r\n\r\n    // Get and set reviews\r\n    mapping(uint => ReviewObject) public reviews;\r\n\r\n    // Get the list of order numbers\r\n    mapping(uint => bool) public hm_orderNumber_bool;\r\n\r\n    // Counter for the number of reviews\r\n    uint public reviewCount;\r\n\r\n    constructor () public {\r\n        addReview(1, 848, \"Headphone\", \"Great product\", 5);\r\n        addReview(2, 849, \"Watch\", \"Bad product\", 1);\r\n        addReview(1, 850, \"Headphone\", \"Mid product\", 3);\r\n    }\r\n\r\n    function addReview (uint _product_id, uint _order_number, string _product_name, string _review_message, uint _num_stars) public {\r\n        require(!hm_orderNumber_bool[_order_number]); // verify uniqueness of orderNumber\r\n        require(_num_stars >= 1 && _num_stars <= 5); // verify if the rating range is valid\r\n        reviewCount ++;\r\n        reviews[reviewCount] = ReviewObject(_product_id, _order_number, _product_name, _review_message, _num_stars);\r\n        hm_orderNumber_bool[_order_number] = true;\r\n        emit submittedEvent(_product_id, _order_number, _product_name, _review_message, _num_stars);\r\n    }\r\n}\r\n",
  "sourcePath": "C:\\Users\\divam\\Repositories\\The-Package\\contracts\\ReviewClass.sol",
  "compiler": {
    "name": "solc",
    "version": "0.4.25+commit.59dbf8f1.Emscripten.clang"
  },
  "schemaVersion": "3.4.11",
  "updatedAt": "2023-02-12T12:00:55.392Z",
  "networkType": "ethereum",
  "devdoc": {
    "methods": {}
  },
  "userdoc": {
    "methods": {}
  }
}