{
  "contractName": "ReviewClass",
  "abi": [
    {
      "constant": true,
      "inputs": [
        {
          "name": "",
          "type": "uint256"
        }
      ],
      "name": "hm_orderNumber_bool",
      "outputs": [
        {
          "name": "",
          "type": "bool"
        }
      ],
      "payable": false,
      "stateMutability": "view",
      "type": "function"
    },
    {
      "constant": true,
      "inputs": [
        {
          "name": "",
          "type": "uint256"
        }
      ],
      "name": "reviews",
      "outputs": [
        {
          "name": "productID",
          "type": "uint256"
        },
        {
          "name": "orderNumber",
          "type": "uint256"
        },
        {
          "name": "productName",
          "type": "string"
        },
        {
          "name": "reviewMessage",
          "type": "string"
        },
        {
          "name": "numStars",
          "type": "uint256"
        }
      ],
      "payable": false,
      "stateMutability": "view",
      "type": "function"
    },
    {
      "constant": true,
      "inputs": [],
      "name": "reviewCount",
      "outputs": [
        {
          "name": "",
          "type": "uint256"
        }
      ],
      "payable": false,
      "stateMutability": "view",
      "type": "function"
    },
    {
      "inputs": [],
      "payable": false,
      "stateMutability": "nonpayable",
      "type": "constructor"
    }
  ],
  "bytecode": "0x608060405234801561001057600080fd5b5061009b60016103506040805190810160405280600981526020017f4865616470686f6e6500000000000000000000000000000000000000000000008152506040805190810160405280600d81526020017f47726561742070726f647563740000000000000000000000000000000000000081525060056101b4640100000000026401000000009004565b61012560026103516040805190810160405280600581526020017f57617463680000000000000000000000000000000000000000000000000000008152506040805190810160405280600b81526020017f4261642070726f6475637400000000000000000000000000000000000000000081525060016101b4640100000000026401000000009004565b6101af60016103516040805190810160405280600981526020017f4865616470686f6e6500000000000000000000000000000000000000000000008152506040805190810160405280600b81526020017f4d69642070726f6475637400000000000000000000000000000000000000000081525060036101b4640100000000026401000000009004565b61037e565b6001600085815260200190815260200160002060009054906101000a900460ff161515156101e157600080fd5b600181101580156101f3575060058111155b15156101fe57600080fd5b60026000815480929190600101919050555060a0604051908101604052808681526020018581526020018481526020018381526020018281525060008060025481526020019081526020016000206000820151816000015560208201518160010155604082015181600201908051906020019061027c9291906102d9565b5060608201518160030190805190602001906102999291906102d9565b5060808201518160040155905050600180600086815260200190815260200160002060006101000a81548160ff0219169083151502179055505050505050565b828054600181600116156101000203166002900490600052602060002090601f016020900481019282601f1061031a57805160ff1916838001178555610348565b82800160010185558215610348579182015b8281111561034757825182559160200191906001019061032c565b5b5090506103559190610359565b5090565b61037b91905b8082111561037757600081600090555060010161035f565b5090565b90565b6103ab8061038d6000396000f300608060405260043610610057576000357c0100000000000000000000000000000000000000000000000000000000900463ffffffff168063776edb871461005c578063e83ddcea146100a1578063eff5924f146101c8575b600080fd5b34801561006857600080fd5b50610087600480360381019080803590602001909291905050506101f3565b604051808215151515815260200191505060405180910390f35b3480156100ad57600080fd5b506100cc60048036038101908080359060200190929190505050610213565b604051808681526020018581526020018060200180602001848152602001838103835286818151815260200191508051906020019080838360005b83811015610122578082015181840152602081019050610107565b50505050905090810190601f16801561014f5780820380516001836020036101000a031916815260200191505b50838103825285818151815260200191508051906020019080838360005b8381101561018857808201518184015260208101905061016d565b50505050905090810190601f1680156101b55780820380516001836020036101000a031916815260200191505b5097505050505050505060405180910390f35b3480156101d457600080fd5b506101dd610379565b6040518082815260200191505060405180910390f35b60016020528060005260406000206000915054906101000a900460ff1681565b6000602052806000526040600020600091509050806000015490806001015490806002018054600181600116156101000203166002900480601f0160208091040260200160405190810160405280929190818152602001828054600181600116156101000203166002900480156102cb5780601f106102a0576101008083540402835291602001916102cb565b820191906000526020600020905b8154815290600101906020018083116102ae57829003601f168201915b505050505090806003018054600181600116156101000203166002900480601f0160208091040260200160405190810160405280929190818152602001828054600181600116156101000203166002900480156103695780601f1061033e57610100808354040283529160200191610369565b820191906000526020600020905b81548152906001019060200180831161034c57829003601f168201915b5050505050908060040154905085565b600254815600a165627a7a72305820a6eb6e2dad7fbc05951b8e8a630fc6171e75afc8d609aeb9fba0dce516d13de90029",
  "source": "pragma solidity ^0.4.25;\r\n\r\ncontract ReviewClass {\r\n    // Model a ReviewObject object \r\n    struct ReviewObject {\r\n        uint productID;\r\n        uint orderNumber;\r\n        string productName;\r\n        string reviewMessage;\r\n        uint numStars;\r\n    }\r\n\r\n    // Get and set reviews\r\n    mapping(uint => ReviewObject) public reviews;\r\n\r\n    // Get the list of order numbers\r\n    mapping(uint => bool) public hm_orderNumber_bool;\r\n\r\n    // Counter for the number of reviews\r\n    uint public reviewCount;\r\n\r\n    constructor () public {\r\n        addReview(1, 848, \"Headphone\", \"Great product\", 5);\r\n        addReview(2, 849, \"Watch\", \"Bad product\", 1);\r\n        addReview(1, 849, \"Headphone\", \"Mid product\", 3);\r\n    }\r\n\r\n    function addReview (uint _product_id, uint _order_number, string _product_name, string _review_message, uint _num_stars) private {\r\n        require(!hm_orderNumber_bool[_order_number]);\r\n        require(_num_stars >= 1 && _num_stars <= 5);\r\n        reviewCount ++;\r\n        reviews[reviewCount] = ReviewObject(_product_id, _order_number, _product_name, _review_message, _num_stars);\r\n        hm_orderNumber_bool[_order_number] = true;\r\n    }\r\n}\r\n",
  "sourcePath": "C:\\Users\\divam\\Repositories\\The-Package\\contracts\\ReviewClass.sol",
  "compiler": {
    "name": "solc",
    "version": "0.4.25+commit.59dbf8f1.Emscripten.clang"
  },
  "schemaVersion": "3.4.11",
  "updatedAt": "2023-02-12T07:48:38.690Z",
  "devdoc": {
    "methods": {}
  },
  "userdoc": {
    "methods": {}
  }
}