{
  "contractName": "ReviewClass",
  "abi": [
    {
      "constant": true,
      "inputs": [
        {
          "name": "",
          "type": "uint256"
        }
      ],
      "name": "reviews",
      "outputs": [
        {
          "name": "productID",
          "type": "uint256"
        },
        {
          "name": "productName",
          "type": "string"
        },
        {
          "name": "reviewMessage",
          "type": "string"
        },
        {
          "name": "numStars",
          "type": "uint256"
        }
      ],
      "payable": false,
      "stateMutability": "view",
      "type": "function"
    },
    {
      "constant": true,
      "inputs": [],
      "name": "reviewCount",
      "outputs": [
        {
          "name": "",
          "type": "uint256"
        }
      ],
      "payable": false,
      "stateMutability": "view",
      "type": "function"
    },
    {
      "inputs": [],
      "payable": false,
      "stateMutability": "nonpayable",
      "type": "constructor"
    }
  ],
  "bytecode": "0x608060405234801561001057600080fd5b5061009860016040805190810160405280600981526020017f4865616470686f6e6500000000000000000000000000000000000000000000008152506040805190810160405280600d81526020017f47726561742070726f64756374000000000000000000000000000000000000008152506005610124640100000000026401000000009004565b61011f60026040805190810160405280600581526020017f57617463680000000000000000000000000000000000000000000000000000008152506040805190810160405280600b81526020017f4261642070726f647563740000000000000000000000000000000000000000008152506001610124640100000000026401000000009004565b610268565b6001600081548092919060010191905055506080604051908101604052808581526020018481526020018381526020018281525060008060015481526020019081526020016000206000820151816000015560208201518160010190805190602001906101929291906101c3565b5060408201518160020190805190602001906101af9291906101c3565b506060820151816003015590505050505050565b828054600181600116156101000203166002900490600052602060002090601f016020900481019282601f1061020457805160ff1916838001178555610232565b82800160010185558215610232579182015b82811115610231578251825591602001919060010190610216565b5b50905061023f9190610243565b5090565b61026591905b80821115610261576000816000905550600101610249565b5090565b90565b61032e806102776000396000f30060806040526004361061004c576000357c0100000000000000000000000000000000000000000000000000000000900463ffffffff168063e83ddcea14610051578063eff5924f14610171575b600080fd5b34801561005d57600080fd5b5061007c6004803603810190808035906020019092919050505061019c565b604051808581526020018060200180602001848152602001838103835286818151815260200191508051906020019080838360005b838110156100cc5780820151818401526020810190506100b1565b50505050905090810190601f1680156100f95780820380516001836020036101000a031916815260200191505b50838103825285818151815260200191508051906020019080838360005b83811015610132578082015181840152602081019050610117565b50505050905090810190601f16801561015f5780820380516001836020036101000a031916815260200191505b50965050505050505060405180910390f35b34801561017d57600080fd5b506101866102fc565b6040518082815260200191505060405180910390f35b6000602052806000526040600020600091509050806000015490806001018054600181600116156101000203166002900480601f01602080910402602001604051908101604052809291908181526020018280546001816001161561010002031660029004801561024e5780601f106102235761010080835404028352916020019161024e565b820191906000526020600020905b81548152906001019060200180831161023157829003601f168201915b505050505090806002018054600181600116156101000203166002900480601f0160208091040260200160405190810160405280929190818152602001828054600181600116156101000203166002900480156102ec5780601f106102c1576101008083540402835291602001916102ec565b820191906000526020600020905b8154815290600101906020018083116102cf57829003601f168201915b5050505050908060030154905084565b600154815600a165627a7a72305820d6c24c53e81d3a4087bb61a2baabf74d74ea8dbce6944dab9727860c46358be80029",
  "source": "pragma solidity ^0.4.25;\r\n\r\ncontract ReviewClass {\r\n    // Model a ReviewObject object \r\n    struct ReviewObject {\r\n        uint productID;\r\n        string productName;\r\n        string reviewMessage;\r\n        uint numStars;\r\n    }\r\n\r\n    // Get and set reviews\r\n    mapping(uint => ReviewObject) public reviews;\r\n\r\n    // Counter for the number of reviews\r\n    uint public reviewCount;\r\n\r\n    constructor () public {\r\n        addReview(1, \"Headphone\", \"Great product\", 5);\r\n        addReview(2, \"Watch\", \"Bad product\", 1);\r\n    }\r\n\r\n    function addReview (uint _product_id, string _product_name, string _review_message, uint _num_stars) private {\r\n        reviewCount ++;\r\n        reviews[reviewCount] = ReviewObject(_product_id, _product_name, _review_message, _num_stars);\r\n    }\r\n}\r\n",
  "sourcePath": "C:\\Users\\divam\\Repositories\\The-Package\\contracts\\ReviewClass.sol",
  "compiler": {
    "name": "solc",
    "version": "0.4.25+commit.59dbf8f1.Emscripten.clang"
  },
  "schemaVersion": "3.4.11",
  "updatedAt": "2023-02-12T04:16:04.820Z",
  "networkType": "ethereum",
  "devdoc": {
    "methods": {}
  },
  "userdoc": {
    "methods": {}
  }
}