{
  "contractName": "ReviewClass",
  "abi": [
    {
      "constant": true,
      "inputs": [
        {
          "name": "",
          "type": "uint256"
        }
      ],
      "name": "reviews",
      "outputs": [
        {
          "name": "productID",
          "type": "uint256"
        },
        {
          "name": "orderNumber",
          "type": "uint256"
        },
        {
          "name": "productName",
          "type": "string"
        },
        {
          "name": "reviewMessage",
          "type": "string"
        },
        {
          "name": "numStars",
          "type": "uint256"
        }
      ],
      "payable": false,
      "stateMutability": "view",
      "type": "function"
    },
    {
      "constant": true,
      "inputs": [],
      "name": "reviewCount",
      "outputs": [
        {
          "name": "",
          "type": "uint256"
        }
      ],
      "payable": false,
      "stateMutability": "view",
      "type": "function"
    },
    {
      "inputs": [],
      "payable": false,
      "stateMutability": "nonpayable",
      "type": "constructor"
    }
  ],
  "bytecode": "0x608060405234801561001057600080fd5b5061009b60016103506040805190810160405280600981526020017f4865616470686f6e6500000000000000000000000000000000000000000000008152506040805190810160405280600d81526020017f47726561742070726f6475637400000000000000000000000000000000000000815250600561012a640100000000026401000000009004565b61012560026103986040805190810160405280600581526020017f57617463680000000000000000000000000000000000000000000000000000008152506040805190810160405280600b81526020017f4261642070726f64756374000000000000000000000000000000000000000000815250600161012a640100000000026401000000009004565b61027f565b60016000815480929190600101919050555060a060405190810160405280868152602001858152602001848152602001838152602001828152506000806001548152602001908152602001600020600082015181600001556020820151816001015560408201518160020190805190602001906101a89291906101da565b5060608201518160030190805190602001906101c59291906101da565b50608082015181600401559050505050505050565b828054600181600116156101000203166002900490600052602060002090601f016020900481019282601f1061021b57805160ff1916838001178555610249565b82800160010185558215610249579182015b8281111561024857825182559160200191906001019061022d565b5b509050610256919061025a565b5090565b61027c91905b80821115610278576000816000905550600101610260565b5090565b90565b61033b8061028e6000396000f30060806040526004361061004c576000357c0100000000000000000000000000000000000000000000000000000000900463ffffffff168063e83ddcea14610051578063eff5924f14610178575b600080fd5b34801561005d57600080fd5b5061007c600480360381019080803590602001909291905050506101a3565b604051808681526020018581526020018060200180602001848152602001838103835286818151815260200191508051906020019080838360005b838110156100d25780820151818401526020810190506100b7565b50505050905090810190601f1680156100ff5780820380516001836020036101000a031916815260200191505b50838103825285818151815260200191508051906020019080838360005b8381101561013857808201518184015260208101905061011d565b50505050905090810190601f1680156101655780820380516001836020036101000a031916815260200191505b5097505050505050505060405180910390f35b34801561018457600080fd5b5061018d610309565b6040518082815260200191505060405180910390f35b6000602052806000526040600020600091509050806000015490806001015490806002018054600181600116156101000203166002900480601f01602080910402602001604051908101604052809291908181526020018280546001816001161561010002031660029004801561025b5780601f106102305761010080835404028352916020019161025b565b820191906000526020600020905b81548152906001019060200180831161023e57829003601f168201915b505050505090806003018054600181600116156101000203166002900480601f0160208091040260200160405190810160405280929190818152602001828054600181600116156101000203166002900480156102f95780601f106102ce576101008083540402835291602001916102f9565b820191906000526020600020905b8154815290600101906020018083116102dc57829003601f168201915b5050505050908060040154905085565b600154815600a165627a7a72305820825c117fb30a112e97a2c3ccd821c8045ae213787bbf259d036833206aa0d05b0029",
  "source": "pragma solidity ^0.4.25;\r\n\r\ncontract ReviewClass {\r\n    // Model a ReviewObject object \r\n    struct ReviewObject {\r\n        uint productID;\r\n        uint orderNumber;\r\n        string productName;\r\n        string reviewMessage;\r\n        uint numStars;\r\n    }\r\n\r\n    // Get and set reviews\r\n    mapping(uint => ReviewObject) public reviews;\r\n\r\n    // Counter for the number of reviews\r\n    uint public reviewCount;\r\n\r\n    constructor () public {\r\n        addReview(1, 848, \"Headphone\", \"Great product\", 5);\r\n        addReview(2, 920, \"Watch\", \"Bad product\", 1);\r\n    }\r\n\r\n    function addReview (uint _product_id, uint _order_number, string _product_name, string _review_message, uint _num_stars) private {\r\n        reviewCount ++;\r\n        reviews[reviewCount] = ReviewObject(_product_id, _order_number, _product_name, _review_message, _num_stars);\r\n    }\r\n}\r\n",
  "sourcePath": "C:\\Users\\divam\\Repositories\\The-Package\\contracts\\ReviewClass.sol",
  "compiler": {
    "name": "solc",
    "version": "0.4.25+commit.59dbf8f1.Emscripten.clang"
  },
  "schemaVersion": "3.4.11",
  "updatedAt": "2023-02-12T05:59:09.673Z",
  "networkType": "ethereum",
  "devdoc": {
    "methods": {}
  },
  "userdoc": {
    "methods": {}
  }
}